:0D0CDF002D2D2D2D2D0A00533D25640A00FA
:0C0CEC00C109020C000004080000000018
:100C7300758921758DFD758BFDD28EE4F58CF58A12
:090C8300D28CD2A9D299D2AF2281
:100C3B00D3EF9400EE940040147D707C00ED1D709A
:0D0C4B00011CED4C70F7EF1F70E61E80E3FA
:010C58002279
:0D0CB800D290D291C292D295C293D29422D2
:090CF900C290D295C293D294225C
:100C8C00D290C291D292D295C293D2947C007D64C0
:060C9C001205D2020C3B20
:0D0CC500D290D291C292D295D293C29422C5
:100CA200D295D293C294D290D291C2927C007D64AA
:060CB2001205D2020C3B0A
:0D0CD200D290C291D292D295D293C29422B8
:05000300C290C295222D
:100BA000AF8CEFFEAD8A7C00E42DF50DEC3EF50C2C
:100BB000E4F58CF58AAC0CAD0D1202267B297A5C2B
:100BC00079EF783F12000EE4FBFA79C878421201FF
:100BD000178F0B8E0A8D098C087F007EC07DDA7C12
:100BE00045AB0BAA0AA909A8081201B450033009A1
:100BF0000BC2097BFF7A0C79DF12068AAF0BAE0AB3
:100C0000AD09AC0812025F8E258F267BFF7A0C7926
:040C1000E602068A68
:03000B00020008E8
:03000800D20932E8
:100C5900D280000000000000000000000000000039
:0A0C690000000000000000C280221D
:100B2300120C73120C593081FDD28C2081FDC28CC2
:100B3300120BA07F0A7E00120C3BE4FFFE7D707C4B
:100B430041AB0BAA0AA909A8081201B450028016E6
:100B5300308403208502800E3083152082028010AA
:100B63002084072085047F03802720830C208209AB
:100B73007F037E00120C8C80AA2084072083047FCD
:100B83000C800E20851220840F20820C2083097F85
:0D0B93000C7E00120CA2808B120CB8808624
:10000E00EC4D6011E8497017ED33EC3304600DE4EC
:10001E00FCFFFEFD22E933E8330470F80202CB1236
:10002E00029658046009E4CC248150062850090237
:10003E0002D52840030202D2C0E0EB4A7044B980D8
:10004E0006D0E0FB0202C1EF4E701CBD8008EBFF34
:10005E00EAFEE9FD80EBE98DF0A4FEE5F00200F783
:10006E00E9CDF9EAFEEBFFEF89F0A4FCE5F0CE89CD
:10007E00F0A42EFFE435F0CD89F0A42DFEE435F08A
:10008E008067EF4E7005BD80D780C3EF8BF0A4ACB8
:10009E00F0EE8BF0A42CFCE435F0F8EF8AF0A42CF3
:1000AE00E5F038FCE433CB8DF0A42CFCE5F03BF806
:1000BE00EE8AF0A42CFCE5F038F8E433CF89F0A4F6
:1000CE002CFCE5F038CF3400CE89F0A42FFFE5F0FC
:1000DE003EFEE433C98DF0A42EFEE5F039CD8AF054
:1000EE00A42FFFE5F03EFEE43DFD33D0E0FB5007CC
:1000FE000BBB000F0202D5EC2CFCEF33FFEE33FEF0
:06010E00ED33FD0202AD1D
:100114000202D5EC5D046005E8590470030202CBC9
:10012400120296580460F6EC4860F2EC7004FDFE8E
:10013400FF22C860DB2481C85009C39860025006BE
:100144000202D29850CAF582E9294B4A7005AB8263
:100154000202C175F0007C1A7880C3EF9BEE9AED21
:1001640099400DC3EF9BFFEE9AFEED99FDE842F036
:10017400DC23ACF0D0E0FFD0E0FED0E0FDAB822089
:10018400E7101BEB60BAEC2CFCEF33FFEE33FEED13
:1001940033FD0202ADE803F830E705C0F075F00066
:1001A400EF2FFFEE33FEED33FD40B830E7C280AAF7
:1001B40074F8CC6480CCC86480C8F582046043C3FE
:1001C400EB9FF5F0EA9E42F0E99D42F0E89C45F091
:1001D40060305018E5825FFFE582F42B5582FB50B6
:1001E400210ABA001D09B90019088016E5825BFBD3
:1001F400E582F42F5582FF50090EBE00050DBD00A7
:10020400010CC3EB9FF5F0EA9E42F0E99D42F0E851
:0D0214009C45F06007CC4820E701B3EC22C8
:1002210075F020800E75F010800575F0087D007E58
:10023100007F003392D530D5031205E4EC33401032
:10024100EF33FFEE33FEED33FDEC33FCD5F0ED2261
:0E025100E5F0247EA2D513CC92E7CDCEFF229D
:10025F00EDD2E7CD33EC3392D524814006E4FFFE97
:10026F00FDFC22FCE4CFCECDCC24E0501174FF80F6
:10027F00EDC3CC13CCCD13CDCE13CECF13CF047093
:07028F00F030D5DE0205E4AA
:10062800E5392425F8E605392278223007027825AD
:10063800E475F0011205F202057A2000EB7F2ED254
:10064800008018EF540F2490D43440D4FF30040BAA
:10065800EF24BFB41A0050032461FFE53A60021585
:100668003A053DE53D7002053C30070D7822E475FA
:10067800F0011205F2EF0205C0020C147403D20750
:100688008003E4C207F5398B228A238924E4F53AEA
:10069800F53CF53DE53A60077F2012066380F57565
:1006A8003BFFC201C200C202C203C205C206C208A1
:1006B800120631FF700D3007057F00120674AF3D3A
:1006C800AE3C22B4255FC2D5C204120631FF24D045
:1006D800B40A00501A75F00A783A30D50508B6FF02
:1006E8000106C6A426F620D5047002D20380D924B8
:1006F800CFB41A00EF5004C2E5D204020961D20156
:1007080080C6D20080C0D20280BCD2D580BAD205C1
:1007180080B47F201206632002077401B53A0040B6
:10072800F1120628FF12066302069CD208D2068040
:1007380095120628FB120628FA120628F94A4B7069
:100748000679587A0A7BFF20022EE53A602A7E0055
:100758008E8275830012059360060EEE653B70F07D
:10076800C2D5EBC0E0EAC0E0E9C0E0EE1209C1D0B2
:10077800E0F9D0E0FAD0E0FB12057AFF60AAEBC0FE
:10078800E0EAC0E0E9C0E0120663D0E02401F9D055
:10079800E03400FAD0E0FBE53B0460DCD53BD980CF
:1007A80087D20280A21209A460F7E53B7001041207
:1007B80002E0A93B600DE53B600914F53B120A4BCA
:1007C800EF60F3EA30E702F404C3995077EAF425BE
:1007D8003B0430E701E404F53B800D1209A460C135
:1007E800EA053B253B1202E0EA7838F630E701E4F7
:1007F800253B04D53B04200501141209C1E4C0E0DF
:10080800120A4B7838E6601320E70714F612064BF5
:10081800802204F6D0E014C0E07F0012064BE53BCE
:100828006007120642153B800B300503120642D0C2
:10083800E002069CD0E00480C51209A460A0E53B54
:10084800041202E07838EAF6E53B2005026001046C
:0508580024041209C197
:10085D0074FF04C0E0120A4B12064BE53B20050263
:10086D006003120642D0E0B53BE87F45120655788D
:10087D0038E67F2B30E7047F2DF404C0E0120663C9
:10088D00D0E075F00A84C0F012064CD0E012064C90
:10089D0002069C791080027908C206C2088008D22F
:1008AD00D5790A8004790AC2D5E53B047002F53B7F
:1008BD00E4FAFDFEFF120628FC7B08200113120648
:1008CD0028FD7B1030000A120628FE120628FF7B39
:1008DD0020EC3382D592D55013C3E43000069FFF30
:1008ED00E49EFEE42001039DFDE49CFCE4CBF8C2F4
:1008FD0001EC700CCFCECDCCE824F8F870F3801756
:10090D00C3EF33FFEE33FEED33FDEC33FCEB33FB86
:10091D00994002FB0FD8E9EB300105F8D0E0C4484F
:10092D00B201C0E00AEC4D4E4F78207B0070C2EA58
:10093D00B53B0040BCC0E01209C3D0F0D0E02001AF
:10094D0004C4C0E0C4B201C0F012064CD0F0D5F022
:10095D00EB02069C12060207395308A058070A4CF1
:10096D0007064208A44F08AC4408AC49071F4308CA
:10097D00B25507E34608414507AD470A7850070EC3
:10098D002D07122E07352B0716230733200A612A50
:10099D0006CE480000072DE53BB4FF03753B06125C
:1009AD000628FC120628FD120628FE120628FF78DE
:1009BD003102030F790AA2D5200314300509B910AD
:1009CD00020404B9080104A2D52006025001042036
:1009DD0002689202B53A005034C0E07F203003190E
:1009ED007F30A20272067205500F120A1AC202C29D
:1009FD0006C205C2087F30800F300503E9C0E01242
:100A0D000663300503D0E0F9D0E0B53ACC300517D8
:100A1D007F30B9100C1206637F583004077F788041
:100A2D0003B908031206633002057F2D0206637FAA
:100A3D00202008F87F2B2006F322920280CF7F0022
:100A4D00B4070050052431F8E6FF22286E756C6C52
:100A5D002900D2011206283001F8C201783A30D5AA
:100A6D000108F60206CE2D504349581206282403DC
:100A7D00B405004001E4900A7393120654743A12BF
:0A0A8D000654D203753A040208A0D3
:10029600E9D2E7C933E833F892D5EDD2E7CD33ECAE
:0702A60033FC5002B2D52227
:1002AD00EC30E7100FBF000C0EBE00080DBD0004B2
:1002BD000BEB6014A2D5EB13FCED92E7FD2274FF5E
:1002CD00FCFDFEFF22E480F8A2D574FF13FC7D80B7
:0302DD00E480EFCB
:1002E000F920E72824F950037907E4F42402FB18E5
:1002F000DBFDE624FB5014E9600DE4F618E604F695
:0F030000B40A08E4F6D9F57401F60A22C2D52230
:10030F00ED33EC3392D5FA602AB4FF33EDC2E77BBD
:10031F00FF60067A037934E4227A03793D20D5040D
:10032F007A037938224E614E002B494E46002D49F3
:10033F004E4600E47A08F608DAFC7B00740722E8E0
:10034F00C0E0ECC0E0EDC0E0EEC0E0EFC0E0EA7569
:10035F00F010A4CAABF075F04DA42BFBE435F0FC04
:10036F00EA2410FAEB34C5FBEC34D9FCEDC2E7FFFD
:10037F0075F056A4F42411C5F0F434C58FF0A42AF7
:10038F00E5F03BE43CF620E71412053AD0E0FFD04D
:10039F00E0FED0E0FDD0E0FC1201178014F404124F
:1003AF00053AD0E0FFD0E0FED0E0FDD0E0FC120037
:1003BF000ED0E0F8E6FAEDD2E7CD33EC332482FB32
:1003CF00E4C3CF33CFCE33CECD33CD33DBF37B0787
:1003DF0075F00A846004F6081B0AE5F0F6088FF042
:1003EF00740AA4FFACF08EF0740AA42CFEACF0508B
:1003FF00010C8DF0740AA42CFDE435F0F608DBDE59
:03040F007407224D
:100412000202CBE86480F8E933E83360110460F04B
:10042200ED33EC337009E8FCE9FDEAFEEBFF220450
:1004320060DED3EB9FEA9EE99DE8C2E78CF0C2F74B
:1004420095F0400CE8CCF8E9CDF9EACEFAEBCFFB17
:1004520012029685D0F05804700320D5B3E80470D8
:10046200075002B2D50202D592D5EC0460F7E4CC73
:10047200C0E0C398F8603B94186008400DD0E0FBE0
:100482000202ADE4FBFAC9FC8028E830E406E4C9C4
:10049200FBE4CAFCE830E305E4C9CACBFCE8540734
:1004A2006010F8C3E913F9EA13FAEB13FBEC13FC3F
:1004B200D8F130F52FC3E49CFCEF9BFFEE9AFEEDE2
:1004C20099FDD0E0FBEF4E4D4C701222DB0302028D
:1004D200D2EC2CFCEF33FFEE33FEED33FDED30E7D3
:1004E200EB0202ADEF2BFFEE3AFEED39FDD0E0FB61
:1004F20050130BBB00030202D5ED13FDEE13FEEF0A
:0805020013FFEC13FC0202AD33
:10050A003F8000004120000042C80000447A0000F9
:10051A00461C400047C35000497424004B1896807B
:10052A004CBEBC205A0E1BCA6753C21C749DC5AE72
:10053A00FB60065407601C2323120568EB543860DD
:10054A000912055412056312000EECF8EDF9EEFAE1
:10055A00EFCB22EB12056380F1543803241C90057B
:10056A000AFE93FC0EEE93FD0EEE930ECE93FF223F
:03000000020A975A
:0C0A9700787FE4F6D8FD75813D020ADE90
:10057A00BB010689828A83E0225002E722BBFE027F
:09058A00E32289828A83E49322B2
:10059300BB010CE58229F582E5833AF583E022501D
:1005A30006E92582F8E622BBFE06E92582F8E22267
:0D05B300E58229F582E5833AF583E4932281
:1005C000BB010689828A83F0225002F722BBFE011A
:0205D000F32214
:1005D200EF8DF0A4A8F0CF8CF0A428CE8DF0A42E3D
:0205E200FE22F7
:0E05E400C3E49FFFE49EFEE49DFDE49CFC2228
:1005F200FAE6FB0808E6F925F0F618E6CA3AF6220A
:10060200D083D082F8E4937012740193700DA3A387
:1006120093F8740193F5828883E47374029368609B
:06062200EFA3A3A380DF9B
:100C1400EFB40A07740D120C1F740A309811A899C6
:100C2400B8130CC2983098FDA899C298B811F63040
:070C340099FDC299F5992218
:100AA300020B23E493A3F8E493A34003F68001F23B
:100AB30008DFF48029E493A3F85407240CC8C33354
:100AC300C4540F4420C8834004F456800146F6DF23
:100AD300E4800B0102040810204080900CECE47EBB
:100AE300019360BCA3FF543F30E509541FFEE49318
:100AF300A360010ECF54C025E060A840B8E493A3DF
:100B0300FAE493A3F8E493A3C8C582C8CAC583CA09
:100B1300F0A3C8C582C8CAC583CADFE9DEE780BEC1
:010CF80000FB
:00000001FF
